{
  "contractName": "ItemManager",
  "abi": [
    {
      "anonymous": false,
      "inputs": [
        {
          "indexed": false,
          "internalType": "uint256",
          "name": "_itemIndex",
          "type": "uint256"
        },
        {
          "indexed": false,
          "internalType": "uint256",
          "name": "_step",
          "type": "uint256"
        }
      ],
      "name": "SupplyChainStep",
      "type": "event"
    },
    {
      "inputs": [],
      "name": "_owner",
      "outputs": [
        {
          "internalType": "address",
          "name": "",
          "type": "address"
        }
      ],
      "stateMutability": "view",
      "type": "function",
      "constant": true
    },
    {
      "inputs": [],
      "name": "isOwner",
      "outputs": [
        {
          "internalType": "bool",
          "name": "",
          "type": "bool"
        }
      ],
      "stateMutability": "view",
      "type": "function",
      "constant": true
    },
    {
      "inputs": [
        {
          "internalType": "uint256",
          "name": "",
          "type": "uint256"
        }
      ],
      "name": "items",
      "outputs": [
        {
          "internalType": "enum ItemManager.SupplyChainSteps",
          "name": "_step",
          "type": "uint8"
        },
        {
          "internalType": "string",
          "name": "_identifier",
          "type": "string"
        },
        {
          "internalType": "uint256",
          "name": "_priceInWei",
          "type": "uint256"
        }
      ],
      "stateMutability": "view",
      "type": "function",
      "constant": true
    },
    {
      "inputs": [
        {
          "internalType": "string",
          "name": "_identifier",
          "type": "string"
        },
        {
          "internalType": "uint256",
          "name": "_priceInWei",
          "type": "uint256"
        }
      ],
      "name": "createItem",
      "outputs": [],
      "stateMutability": "nonpayable",
      "type": "function"
    },
    {
      "inputs": [
        {
          "internalType": "uint256",
          "name": "_index",
          "type": "uint256"
        }
      ],
      "name": "triggerPayment",
      "outputs": [],
      "stateMutability": "payable",
      "type": "function",
      "payable": true
    },
    {
      "inputs": [
        {
          "internalType": "uint256",
          "name": "_index",
          "type": "uint256"
        }
      ],
      "name": "triggerDelivery",
      "outputs": [],
      "stateMutability": "nonpayable",
      "type": "function"
    }
  ],
  "bytecode": "0x608060405234801561001057600080fd5b50336000806101000a81548173ffffffffffffffffffffffffffffffffffffffff021916908373ffffffffffffffffffffffffffffffffffffffff160217905550610a0e806100606000396000f3fe6080604052600436106100555760003560e01c8063800fb83f1461005a5780638c551742146100885780638f32d59b1461015a578063b2bdfa7b14610187578063bfb231d2146101c8578063cd31831e14610295575b600080fd5b6100866004803603602081101561007057600080fd5b81019080803590602001909291905050506102d0565b005b34801561009457600080fd5b50610158600480360360408110156100ab57600080fd5b81019080803590602001906401000000008111156100c857600080fd5b8201836020820111156100da57600080fd5b803590602001918460018302840111640100000000831117156100fc57600080fd5b91908080601f016020809104026020016040519081016040528093929190818152602001838380828437600081840152601f19601f82011690508083019250505050505050919291929080359060200190929190505050610495565b005b34801561016657600080fd5b5061016f61061a565b60405180821515815260200191505060405180910390f35b34801561019357600080fd5b5061019c610671565b604051808273ffffffffffffffffffffffffffffffffffffffff16815260200191505060405180910390f35b3480156101d457600080fd5b50610201600480360360208110156101eb57600080fd5b8101908080359060200190929190505050610695565b6040518084600281111561021157fe5b815260200180602001838152602001828103825284818151815260200191508051906020019080838360005b8381101561025857808201518184015260208101905061023d565b50505050905090810190601f1680156102855780820380516001836020036101000a031916815260200191505b5094505050505060405180910390f35b3480156102a157600080fd5b506102ce600480360360208110156102b857600080fd5b8101908080359060200190929190505050610764565b005b346001600083815260200190815260200160002060020154111561035c576040517f08c379a000000000000000000000000000000000000000000000000000000000815260040180806020018281038252600e8152602001807f4e6f742066756c6c79207061696400000000000000000000000000000000000081525060200191505060405180910390fd5b6000600281111561036957fe5b6001600083815260200190815260200160002060000160009054906101000a900460ff16600281111561039857fe5b146103ee576040517f08c379a00000000000000000000000000000000000000000000000000000000081526004018080602001828103825260238152602001806109b66023913960400191505060405180910390fd5b600180600083815260200190815260200160002060000160006101000a81548160ff0219169083600281111561042057fe5b02179055507f8c198761ba3d324d155cbaf96f0ac38a531c085089e49106d95352535a1110c2816001600084815260200190815260200160002060000160009054906101000a900460ff16600281111561047657fe5b604051808381526020018281526020019250505060405180910390a150565b61049d61061a565b61050f576040517f08c379a00000000000000000000000000000000000000000000000000000000081526004018080602001828103825260208152602001807f4f776e61626c653a2063616c6c6572206973206e6f7420746865206f776e657281525060200191505060405180910390fd5b8060016000600254815260200190815260200160002060020181905550600060016000600254815260200190815260200160002060000160006101000a81548160ff0219169083600281111561056157fe5b0217905550816001600060025481526020019081526020016000206001019080519060200190610592929190610918565b507f8c198761ba3d324d155cbaf96f0ac38a531c085089e49106d95352535a1110c260025460016000600254815260200190815260200160002060000160009054906101000a900460ff1660028111156105e857fe5b604051808381526020018281526020019250505060405180910390a16002600081548092919060010191905055505050565b60008060009054906101000a900473ffffffffffffffffffffffffffffffffffffffff1673ffffffffffffffffffffffffffffffffffffffff163373ffffffffffffffffffffffffffffffffffffffff1614905090565b60008054906101000a900473ffffffffffffffffffffffffffffffffffffffff1681565b60016020528060005260406000206000915090508060000160009054906101000a900460ff1690806001018054600181600116156101000203166002900480601f0160208091040260200160405190810160405280929190818152602001828054600181600116156101000203166002900480156107545780601f1061072957610100808354040283529160200191610754565b820191906000526020600020905b81548152906001019060200180831161073757829003601f168201915b5050505050908060020154905083565b61076c61061a565b6107de576040517f08c379a00000000000000000000000000000000000000000000000000000000081526004018080602001828103825260208152602001807f4f776e61626c653a2063616c6c6572206973206e6f7420746865206f776e657281525060200191505060405180910390fd5b600160028111156107eb57fe5b6001600083815260200190815260200160002060000160009054906101000a900460ff16600281111561081a57fe5b14610870576040517f08c379a00000000000000000000000000000000000000000000000000000000081526004018080602001828103825260238152602001806109b66023913960400191505060405180910390fd5b60026001600083815260200190815260200160002060000160006101000a81548160ff021916908360028111156108a357fe5b02179055507f8c198761ba3d324d155cbaf96f0ac38a531c085089e49106d95352535a1110c2816001600084815260200190815260200160002060000160009054906101000a900460ff1660028111156108f957fe5b604051808381526020018281526020019250505060405180910390a150565b828054600181600116156101000203166002900490600052602060002090601f016020900481019282601f1061095957805160ff1916838001178555610987565b82800160010185558215610987579182015b8281111561098657825182559160200191906001019061096b565b5b5090506109949190610998565b5090565b5b808211156109b1576000816000905550600101610999565b509056fe4974656d206973206675727468657220696e2074686520737570706c7920636861696ea26469706673582212201b15eb6eb3923bb4a30f083e59a24caee28edab80afc34eb72e1df9ecc95269b64736f6c634300060c0033",
  "immutableReferences": {},
  "source": "pragma solidity ^0.6.0;\n\nimport \"./Ownable.sol\";\nimport \"./Item.sol\";\n\ncontract ItemManager is Ownable {\n    enum SupplyChainSteps {\n        Created,\n        Paid,\n        Delivered\n    }\n\n    struct S_Item {\n        ItemManager.SupplyChainSteps _step;\n        string _identifier;\n        uint256 _priceInWei;\n    }\n    mapping(uint256 => S_Item) public items;\n    uint256 index;\n\n    event SupplyChainStep(uint256 _itemIndex, uint256 _step);\n\n    function createItem(string memory _identifier, uint256 _priceInWei)\n        public\n        onlyOwner\n    {\n        items[index]._priceInWei = _priceInWei;\n        items[index]._step = SupplyChainSteps.Created;\n        items[index]._identifier = _identifier;\n        emit SupplyChainStep(index, uint256(items[index]._step));\n        index++;\n    }\n\n    function triggerPayment(uint256 _index) public payable {\n        require(items[_index]._priceInWei <= msg.value, \"Not fully paid\");\n        require(\n            items[_index]._step == SupplyChainSteps.Created,\n            \"Item is further in the supply chain\"\n        );\n        items[_index]._step = SupplyChainSteps.Paid;\n        emit SupplyChainStep(_index, uint256(items[_index]._step));\n    }\n\n    function triggerDelivery(uint256 _index) public onlyOwner {\n        require(\n            items[_index]._step == SupplyChainSteps.Paid,\n            \"Item is further in the supply chain\"\n        );\n        items[_index]._step = SupplyChainSteps.Delivered;\n        emit SupplyChainStep(_index, uint256(items[_index]._step));\n    }\n}\n",
  "sourcePath": "/Users/macbookpro/Desktop/learn/contracts/ItemManager.sol",
  "compiler": {
    "name": "solc",
    "version": "0.6.12+commit.27d51765.Emscripten.clang"
  },
  "schemaVersion": "3.4.4",
  "updatedAt": "2021-12-18T20:57:09.228Z",
  "networkType": "ethereum",
  "devdoc": {
    "kind": "dev",
    "methods": {
      "isOwner()": {
        "details": "Returns true if the caller is the current owner."
      }
    },
    "version": 1
  },
  "userdoc": {
    "kind": "user",
    "methods": {},
    "version": 1
  }
}